:020000040000fa
:080000000002040000000000f2
:020000040000fa
:04000800e60200000c
:020000040000fa
:04000c00e602000008
:020000040000fa
:04001000e602000004
:020000040000fa
:04001400e602000000
:020000040000fa
:04001800e6020000fc
:020000040000fa
:04001c00e6020000f8
:020000040000fa
:04002000e6020000f4
:020000040000fa
:04002400e6020000f0
:020000040000fa
:04002800e6020000ec
:020000040000fa
:04002c00e6020000e8
:020000040000fa
:04003000e6020000e4
:020000040000fa
:04003400e6020000e0
:020000040000fa
:04003800e6020000dc
:020000040000fa
:04003c00e6020000d8
:020000040000fa
:04004000e6020000d4
:020000040000fa
:04004400e6020000d0
:020000040000fa
:04004800e6020000cc
:020000040000fa
:04004c00e6020000c8
:020000040000fa
:04005000e6020000c4
:020000040000fa
:04005400e6020000c0
:020000040000fa
:04005800e6020000bc
:020000040000fa
:04005c00e6020000b8
:020000040000fa
:04006000e6020000b4
:020000040000fa
:04006400e6020000b0
:020000040000fa
:04006800e6020000ac
:020000040000fa
:04006c00e6020000a8
:020000040000fa
:04007000e6020000a4
:020000040000fa
:04007400e6020000a0
:020000040000fa
:04007800e60200009c
:020000040000fa
:04007c00e602000098
:020000040000fa
:04008000e602000094
:020000040000fa
:04008400e602000090
:020000040000fa
:04008800e60200008c
:020000040000fa
:04008c00e602000088
:020000040000fa
:04009000e602000084
:020000040000fa
:04009400e602000080
:020000040000fa
:04009800e60200007c
:020000040000fa
:04009c00e602000078
:020000040000fa
:0400a000e602000074
:020000040000fa
:0400a400e602000070
:020000040000fa
:0400a800e60200006c
:020000040000fa
:0400ac00e602000068
:020000040000fa
:0400b000e602000064
:020000040000fa
:0400b400e602000060
:020000040000fa
:0400b800e60200005c
:020000040000fa
:0400bc00e602000058
:020000040000fa
:0400c000e602000054
:020000040000fa
:0400c400e602000050
:020000040000fa
:0400c800e60200004c
:020000040000fa
:0400cc00e602000048
:020000040000fa
:0400d000e602000044
:020000040000fa
:0400d400e602000040
:020000040000fa
:0400d800e60200003c
:020000040000fa
:0400dc00e602000038
:020000040000fa
:0400e000e602000034
:020000040000fa
:0400e400e602000030
:020000040000fa
:0400e800e60200002c
:020000040000fa
:0400ec00e602000028
:020000040000fa
:0400f000e602000024
:020000040000fa
:0400f400e602000020
:020000040000fa
:0400f800e60200001c
:020000040000fa
:0400fc00e602000018
:020000040000fa
:04010000e602000013
:020000040000fa
:04010400e60200000f
:020000040000fa
:04010800e60200000b
:020000040000fa
:04010c00e602000007
:020000040000fa
:04011000e602000003
:020000040000fa
:04011400e6020000ff
:020000040000fa
:04011800e6020000fb
:020000040000fa
:04011c00e6020000f7
:020000040000fa
:04012000e6020000f3
:020000040000fa
:04012400e6020000ef
:020000040000fa
:04012800e6020000eb
:020000040000fa
:04012c00e6020000e7
:020000040000fa
:04013000e6020000e3
:020000040000fa
:04013400e6020000df
:020000040000fa
:04013800e6020000db
:020000040000fa
:04013c00e6020000d7
:020000040000fa
:04014000e6020000d3
:020000040000fa
:04014400e6020000cf
:020000040000fa
:04014800e6020000cb
:020000040000fa
:04014c00e6020000c7
:020000040000fa
:04015000e6020000c3
:020000040000fa
:04015400e6020000bf
:020000040000fa
:04015800e6020000bb
:020000040000fa
:04015c00e6020000b7
:020000040000fa
:04020800e60200000a
:020000040000fa
:04020c00e602000006
:020000040000fa
:04021000e602000002
:020000040000fa
:04021400e6020000fe
:020000040000fa
:04021800e6020000fa
:020000040000fa
:04021c00e6020000f6
:020000040000fa
:04022000e6020000f2
:020000040000fa
:04022400e6020000ee
:020000040000fa
:04022800e6020000ea
:020000040000fa
:04022c00e6020000e6
:020000040000fa
:04023000e6020000e2
:020000040000fa
:04023400e6020000de
:020000040000fa
:04023800e6020000da
:020000040000fa
:04023c00e6020000d6
:020000040000fa
:04024000e6020000d2
:020000040000fa
:04024400e6020000ce
:020000040000fa
:04024800e6020000ca
:020000040000fa
:04024c00e6020000c6
:020000040000fa
:04025000e6020000c2
:020000040000fa
:04025400e6020000be
:020000040000fa
:04025800e6020000ba
:020000040000fa
:04025c00e6020000b6
:020000040000fa
:04026000e6020000b2
:020000040000fa
:04026400e6020000ae
:020000040000fa
:04026800e6020000aa
:020000040000fa
:04026c00e6020000a6
:020000040000fa
:04027000e6020000a2
:020000040000fa
:04027400e60200009e
:020000040000fa
:04027800e60200009a
:020000040000fa
:04027c00e602000096
:020000040000fa
:04028000e602000092
:020000040000fa
:04028400e60200008e
:020000040000fa
:04028800e60200008a
:020000040000fa
:04028c00e602000086
:020000040000fa
:04029000e602000082
:020000040000fa
:04029400e60200007e
:020000040000fa
:04029800e60200007a
:020000040000fa
:04029c00e602000076
:020000040000fa
:0402a000e602000072
:020000040000fa
:0402a400e60200006e
:020000040000fa
:0402a800e60200006a
:020000040000fa
:0402ac00e602000066
:020000040000fa
:0402b000e602000062
:020000040000fa
:0402b400e60200005e
:020000040000fa
:0402b800e60200005a
:020000040000fa
:0402bc00e602000056
:020000040000fa
:0402c000e602000052
:020000040000fa
:0402c400e60200004e
:020000040000fa
:0402c800e60200004a
:020000040000fa
:0402cc00e602000046
:020000040000fa
:0402d000e602000042
:020000040000fa
:0402d400e60200003e
:020000040000fa
:0402d800e60200003a
:020000040000fa
:0402dc00e602000036
:020000040000fa
:0402e000e602000032
:020000040000fa
:0402e400e60200002e
:020000040000fa
:0402e800e60200002a
:020000040000fa
:0402ec00e602000026
:020000040000fa
:0402f000e602000022
:020000040000fa
:0402f400e60200001e
:020000040000fa
:0402f800e60200001a
:020000040000fa
:0402fc00e602000016
:020000040000fa
:04030000e602000011
:020000040000fa
:04030400e60200000d
:020000040000fa
:04030800e602000009
:020000040000fa
:04030c00e602000005
:020000040000fa
:04031000e602000001
:020000040000fa
:04031400e6020000fd
:020000040000fa
:04031800e6020000f9
:020000040000fa
:04031c00e6020000f5
:020000040000fa
:04032000e6020000f1
:020000040000fa
:04032400e6020000ed
:020000040000fa
:04032800e6020000e9
:020000040000fa
:04032c00e6020000e5
:020000040000fa
:04033000e6020000e1
:020000040000fa
:04033400e6020000dd
:020000040000fa
:04033800e6020000d9
:020000040000fa
:04033c00e6020000d5
:020000040000fa
:04034000e6020000d1
:020000040000fa
:04034400e6020000cd
:020000040000fa
:04034800e6020000c9
:020000040000fa
:04034c00e6020000c5
:020000040000fa
:04035000e6020000c1
:020000040000fa
:04035400e6020000bd
:020000040000fa
:04035800e6020000b9
:020000040000fa
:04035c00e6020000b5
:020000040000fa
:100400000f8020000edf20000e0188000000000099
:10041000000020000000e000020032000001200087
:1004200020028800140007006a0007000000e000b6
:1004300003003a0000002000010020000200370005
:100440000000200001002000810f70000100320038
:1004500014000700000020000000e000020032004d
:1004600000000200000000009e04020000000000e6
:100470000040da000000fe004440a9000000200017
:100480000000e0000300320000002000a00188000e
:100490004440a800000006008a1f78008b1f7800e7
:1004a0000000060091018800800478000000eb0045
:1004b0001a003700e284440032a0b4009905ba0063
:1004c000e284440032a0b4009906ba00e2844400f9
:1004d00032a0b4000006eb00476fde00fd07b2005b
:1004e000636ce10003003a00ebff07000000eb0043
:1004f0000a003700606ce10004003a00005deb0088
:100500008b05e900fdff3e00040037006168e10053
:10051000010032000086eb000b00070019c7ba008b
:100520001905ba000e04e00003003a000a00e000da
:10053000e0ff3a0000000600fe07b2009e018800be
:100540008a047800f5ff3700395dba008b05e900b1
:100550000c003200295dba008b05e900080032006a
:100560000c00e00003003a00e284440032a0b40032
:10057000f5ff370019ddba008b05e900faff3a00f4
:100580008904e800e184440032a0b40000000600c1
:100590003600f800809fbe00829fbe00849fbe0090
:1005a000869fbe000000fa008660a9007b0007005d
:1005b0000080fa004f03be004f02be004f01be0094
:1005c0004f00be003600f900004006000040da008f
:0805d0000000fe000000050020
:020000040000fa
:1005d8000000fa000080eb0060198800c902a90039
:1005e800c042a800c082a800c882a8006800a8006d
:1005f8006bc0a8006820a8006000a80063c0a8001d
:100608006020a8008660a9009660a80061058000a7
:100618000000270001007000600588000080fa00d3
:10062800000006000400fa008e80e80080087800c8
:100638000e80e80010007800e80f500003003a0030
:100648000040eb00004f7800120037000e80e800f1
:1006580090007800401f2000808f500003003a006f
:1006680060c6b300004f78000a0037000e80e8002b
:100678009000780000022000808f500003003a00ac
:1006880050c5b300004f78000200370050c5b300d2
:10069800004f780011028000000e20000100700059
:1006a80010028800213a8000f08f2f00008060003f
:1006b800203a88001e01fb0080072000a1092000c5
:1006c8003374200080497800814978008249780095
:1006d800120020006004200071052000237420000f
:1006e8008049780081497800824978004207a8004b
:1006f80000000000103a8000610060000000e00087
:10070800fcff3a0011028000f0f12f000080600029
:10071800100288000080fa00000006000200fa00bb
:10072800000f780011e1a9001021a90010c1a9004b
:1007380081088000f0fc2f0000806000800888009d
:100748000621ef00007d20006008880084e0a900f1
:1007580011e1a80008003700000000002104800013
:1007680000082000008060000000e000fbff32006d
:1007780084e0a9001e0fe9001e0078000000e000d8
:10078800f5ff3a0011e1a9000140fe000080fa00df
:10079800000006000000fa001016800064006000e7
:1007a8000000e0000f003a001016800070006000a2
:1007b8000000e0000b00320050168000700060005e
:1007c8000000e00007003200cd02a800803e2000b3
:1007d800d2ff0700cd02a900803e2000cfff07000e
:1007e8005100370010168000640060000000e0002f
:1007f8000f00320010168000700060000000e0005a
:100808000b003a0050168000700060000000e00005
:1008180007003200cd02a800007d2000bfff0700be
:10082800cd02a900007d2000bcff07003e00370074
:1008380010168000640060000000e0000f00320025
:1008480010168000700060000000e0000b0032000d
:1008580050168000700060000000e00007003a00b9
:10086800cd02a80080bb2000acff0700cd02a90084
:1008780080bb2000a9ff07002b003700101680005e
:10088800640060000000e0000a003a0010168000d2
:10089800700060000000e00006003a00501680007a
:1008a800700060000000e00002003200cd02a800e5
:1008b8001d00370010168000640060000000e00092
:1008c8000a003a0010168000700060000000e00086
:1008d8000600320050168000700060000000e00042
:1008e80002003a00cd02a8000f0037001016800061
:1008f800640060000000e0000a003200101680006a
:10090800700060000000e00006003a005016800009
:10091800700060000000e00002003a00cd02a8006c
:1009280001003700cd02a9000140fe000080fa0056
:10093800000006000000fa008000200039ff0700d0
:0c09480023ff070093ff0700feff3700ad
:020000040000fa
:0200000401f009
:04000000ffffff00ff
:020000040000fa
:0200000401f009
:04000800ffffff00f7
:020000040000fa
:0200000401f009
:04000c0000000000f0
:020000040000fa
:0200000401f009
:040010005300000099
:020000040000fa
:0200000401f009
:0400140040000000a8
:020000040000fa
:0200000401f009
:0400180010000000d4
:020000040000fa
:0200000401f009
:04001c00c20000001e
:020000040000fa
:0200000401f009
:0400200017000000c5
:00000001FF
